:020000040000FA
:100000000C94C3010C94EB010C94EB010C94EB01E8
:100010000C94EB010C94EB010C94EB010C94EB01B0
:100020000C94EB010C94EB010C94EB010C94EB01A0
:100030000C94EB010C94EB010C94EB010C94EB0190
:100040000C9478260C94EB010C9446260C942026F4
:100050000C94EB010C94EB010C94EB010C94EB0170
:100060000C94EB010C94EB015061636B657420718F
:10007000756575656420212121004F505F545852E9
:100080005850454E442C206E6F742073656E646921
:100090006E6700000000006700CC00B80154039DAB
:1000A00007A027BE33E034C1332042C433A127BEAA
:1000B00033E134C1332142C433556E6B6E6F776EBA
:1000C000206576656E743A20002062797465732E1F
:1000D00000526563656976656420005265636569F1
:1000E0007665642061636B0045565F5458434F4DFD
:1000F000504C4554450045565F4C494E4B5F414C72
:100100004956450045565F4C494E4B5F4445414476
:100110000045565F5258434F4D504C45544500459D
:10012000565F52455345540045565F4C4F53545FFC
:100130005453594E430045565F52454A4F494E5F0E
:100140004641494C45440045565F4A4F494E5F463B
:1001500041494C45440045565F4A4F494E4544008D
:1001600045565F4A4F494E494E470045565F424506
:1001700041434F4E5F545241434B45440045565F07
:10018000424541434F4E5F4D495353454400455608
:100190005F424541434F4E5F464F554E44004556E2
:1001A0005F5343414E5F54494D454F555400202005
:1001B000200E11140C0F12090C0F06090C0306096E
:1001C000000306140E0B08050200000000000000EA
:1001D00000000000000001000100010000FF060512
:1001E000040302010900FF305F546F495F5054312E
:1001F0005F546F495F5054C040000000000024006D
:1002000027002A0000000000250028002B00000025
:1002100000080002010000030407000000000000C5
:100220000000000400000002000000010000800047
:100230000000400000002000000010000000050049
:100240000000637C777BF26B6FC53001672BFED7B4
:10025000AB76CA82C97DFA5947F0ADD4A2AF9CA44F
:1002600072C0B7FD9326363FF7CC34A5E5F171D8BF
:10027000311504C723C31896059A071280E2EB27AD
:10028000B27509832C1A1B6E5AA0523BD6B329E3D0
:100290002F8453D100ED20FCB15B6ACBBE394A4CB0
:1002A00058CFD0EFAAFB434D338545F9027F503C30
:1002B0009FA851A3408F929D38F5BCB6DA2110FF5C
:1002C000F3D2CD0C13EC5F974417C4A77E3D645D59
:1002D000197360814FDC222A908846EEB814DE5EE6
:1002E0000BDBE0323A0A4906245CC2D3AC6291953A
:1002F000E479E7C8376D8DD54EA96C56F4EA657A76
:10030000AE08BA78252E1CA6B4C6E8DD741F4BBD16
:100310008B8A703EB5664803F60E613557B986C1C3
:100320001D9EE1F8981169D98E949B1E87E9CE55E0
:1003300028DF8CA1890DBFE6426841992D0FB0548A
:10034000BB16000000002300260029005C20E0B955
:10035000A37FD4B412271C5DAA4039090404040405
:10036000040404040202020202020303030303035F
:10037000010204081020408001020408102001023C
:1003800004081020C22611241FBECFEFD8E0DEBF24
:10039000CDBF12E0A0E0B1E0EAE7F9E502C00590C8
:1003A0000D92A838B107D9F725E0A8E8B2E001C05E
:1003B0001D92AE33B207E1F711E0C3ECD1E004C007
:1003C0002197FE010E94C92AC23CD107C9F70E94A9
:1003D00015270C94BB2C0C940000CF92DF92EF9267
:1003E000FF92CF93DF93B0913205A0E08111AB2F44
:1003F0008091330590E0880F991FAC014E5B5C4FF4
:10040000C0903805D0903905E0903A05F0903B0552
:1004100030E020E0FA01C591D491E881B90190E083
:1004200080E0EB23EA130AC02F5F3F4F6C157D0578
:100430008E059F0578F36FEF7FEFCB01DF91CF91B2
:10044000FF90EF90DF90CF900895FC0120E12150C4
:1004500008F4089580E0211181819191990F87FD21
:100460009160DF0111979C93F2CFBC01EEE0F4E0C4
:1004700090E080E030E020E04191942748E0DC010A
:10048000880F991FB7FF04C051E2852750E19527D7
:100490004150A9F72F5F3F4F2617370769F7089597
:1004A000CF92DF92EF92FF92803108F069C06A012B
:1004B0007B0190ECC91A9DEFD90A91EDE90A93E30B
:1004C000F90A91E9C91690EDD90693E0E906F1041D
:1004D00090F54260E82FF0E0DF01AA0FBB1FAA0FE2
:1004E000BB1FA553BD4FDB964D935D936D937C93DE
:1004F000DE972115310511F42FE330E0EE0FFF1FD9
:10050000EA5BFC4F3183208321E030E002C0220F00
:10051000331F8A95E2F78091660390916703822BDF
:10052000932B909367038093660381E0FF90EF9095
:10053000DF90CF9008956A017B0191EAD91A9CEB74
:10054000E90A93E3F90A91ECC91697E2D90699E012
:10055000E906F10498F06A017B0190EAC91A91E971
:10056000D90A96EDE90A93E3F90A91EEC91693E9DF
:10057000D90694E0E906F10408F0ACCF4160AACFB7
:1005800080E0D4CFAF92BF92CF92DF92EF92FF92F2
:100590000F931F93CF93DF936C017B018B01040FAB
:1005A000151FEB015E01AE18BF08C017D10759F047
:1005B0006991D601ED91FC910190F081E02DC60189
:1005C0000995892B79F7C501DF91CF911F910F9183
:1005D000FF90EF90DF90CF90BF90AF900895FC0117
:1005E000538D448D252F30E0842F90E0821B930B98
:1005F000541710F0CF96089501970895FC01918D3E
:10060000828D981761F0A28DAE0FBF2FB11D5D9640
:100610008C91928D9F5F9F73928F90E008958FEFE2
:100620009FEF0895FC01918D828D981731F0828D96
:10063000E80FF11D858D90E008958FEF9FEF0895ED
:10064000FC01918D228D892F90E0805C9F4F821B51
:1006500091098F73992708958CE894E00E942003F4
:1006600021E0892B09F420E0822F089580E090E0BA
:10067000892B29F00E942C0381110C94000008950D
:10068000FC01A48DA80FB92FB11DA35ABF4F2C9107
:10069000848D90E001968F739927848FA689B789FE
:1006A0002C93A089B1898C91837080648C93938DF5
:1006B000848D981306C00288F389E02D80818F7D98
:1006C00080830895EF92FF920F931F93CF93DF9350
:1006D000EC0181E0888F9B8D8C8D98131AC0E8897E
:1006E000F989808185FF15C09FB7F894EE89FF894D
:1006F0006083E889F98980818370806480839FBFEB
:1007000081E090E0DF91CF911F910F91FF90EF90EA
:100710000895F62E0B8D10E00F5F1F4F0F731127FA
:10072000E02E8C8D8E110CC00FB607FCFACFE88935
:10073000F989808185FFF5CFCE010E944003F1CF7A
:10074000EB8DEC0FFD2FF11DE35AFF4FF0829FB7A9
:10075000F8940B8FEA89FB8980818062CFCF0F9359
:100760001F93CF93DF938C01D0E0C0E0F801EC0F32
:10077000FD1F6491662341F08CE894E00E946203BF
:10078000892B11F02196F2CFCE01DF91CF911F91ED
:100790000F910895CF93DF93EC01888D8823B9F0F2
:1007A000AA89BB89E889F9898C9185FD03C080817C
:1007B00086FD0DC00FB607FCF7CF8C9185FFF2CFF9
:1007C000808185FFEDCFCE010E944003E9CFDF910C
:1007D000CF910895833081F028F4813099F08230F0
:1007E000A9F008958730A9F08830C9F08430B1F4B9
:1007F000809180008F7D03C0809180008F778093EF
:100800008000089584B58F7784BD089584B58F7D69
:10081000FBCF8091B0008F778093B00008958091D6
:10082000B0008F7DF9CF1F93CF93DF93282F30E057
:10083000F901E25FFD4F8491F901E059FC4FD49139
:10084000F901E45AFC4FC491CC23A9F0162F811171
:100850000E94EA03EC2FF0E0EE0FFF1FEC5FFD4F6C
:10086000A591B4918FB7F894EC91111108C0D0956F
:10087000DE23DC938FBFDF91CF911F910895DE2B94
:10088000F8CFCF93DF9390E0FC01E059FC4F249127
:10089000845A9C4FFC0184918823C9F090E0880F12
:1008A000991FFC01E650FE4FA591B491FC01EC5F4D
:1008B000FD4FC591D49161110DC09FB7F8948C91F3
:1008C000209582238C938881282328839FBFDF91E2
:1008D000CF910895623051F49FB7F8943C91822FE4
:1008E000809583238C93E8812E2BEFCF8FB7F894DC
:1008F000EC912E2B2C938FBFEACF3FB7F8948091C9
:10090000BB029091BC02A091BD02B091BE0226B57F
:10091000A89B05C02F3F19F00196A11DB11D3FBF37
:10092000BA2FA92F982F8827BC01CD01620F711D06
:10093000811D911D43E0660F771F881F991F4A95FF
:10094000D1F708958F929F92AF92BF92CF92DF928C
:10095000EF92FF924B015C010E947D046B017C01D0
:100960000E947D046C197D098E099F09683E7340C1
:1009700081059105A8F321E0821A9108A108B10828
:1009800088EEC80E83E0D81EE11CF11C811491048E
:10099000A104B10429F7FF90EF90DF90CF90BF90B2
:1009A000AF909F908F900895CF92DF92EF92FF9239
:1009B0000F931F93CF93DF93CDB7DEB7C054D140D1
:1009C0000FB6F894DEBF0FBECDBF2FB7F89480915D
:1009D000780490917904A0917A04B0917B042FBFA0
:1009E0004091340550913505609136057091370579
:1009F0008C019D01041B150B260B370BB901A801B7
:100A0000403D57406105710590F480913C05C05C04
:100A1000DE4F0FB6F894DEBF0FBECDBFDF91CF9192
:100A20001F910F91FF90EF90DF90CF9008958093EA
:100A3000340590933505A0933605B0933705109291
:100A40002F0510922E0510922D0510922C05109254
:100A50002B0562E0809130050E94410461E070E066
:100A600080E090E00E94A20461E0809130050E9445
:100A7000410460E0809130050E94130480913105AB
:100A80008551823010F584E998E00197F1F762E032
:100A9000809130050E94410480913D0590E08330B3
:100AA000910528F0880F991F04970197F1F7F894A2
:100AB00080E00E94ED016F3F7F4F8F4F9F4F61F4A9
:100AC00010923C05789480E0A2CF64E170E080E071
:100AD00090E00E94A204DBCF81E00E94ED016F3F15
:100AE0007F4F8F4F9F4F61F38E010F5F1F4F6E013E
:100AF0008FEBC81A8EEFD80A780180E00E94ED01D2
:100B0000F701608371838283938381E00E94ED010A
:100B1000F7016483758386839783F8E0EF0EF11CF9
:100B2000EC14FD0451F7789430E020E0F801C08027
:100B3000D180E280F3804481558166817781FFEF27
:100B4000CF16DF06EF06FF0631F04F3F8FEF580755
:100B50006807780719F410923C05B5CFF90183E0D6
:100B6000F595E7958A95E1F7E55DFA4F8081880F65
:100B7000C416D506E606F70610F180832F5F3F4FB7
:100B8000085F1F4F2832310589F640912F052091CB
:100B90002B0580912C05280F3327331F80912D05BD
:100BA000280F311D80912E05820F932F911D9927BB
:100BB0004817190681F681E080933C0528CF8160B3
:100BC000DCCF603811F0609375039091760398172D
:100BD00059F080937603809172039091730398602B
:100BE00090937303809372030895FC016081718177
:100BF0008281938108950F931F9301970E94F505B9
:100C0000272F382F492F5527A4E6B0E00E94EC2A61
:100C10008B019C01005C154520473343013C1F4C70
:100C20002A46310518F060E070E0CB011F910F916A
:100C30000895F894809199028F5F809399020895A6
:100C40000F931F930E947D04AB01BC01209195027C
:100C5000DC01CA013CE1B695A795979587953A9531
:100C6000D1F782278870820F80939502E4E0769511
:100C7000679557954795EA95D1F79B01382BC901A0
:100C8000BA011F910F910895CF92DF92EF92FF92D8
:100C90006B017C010E942006C61AD70AE80AF90AED
:100CA00089EEC81683E0D806E104F1046CF060E137
:100CB00070E080E090E00E94A20488EEC81A83E011
:100CC000D80AE108F108ECCF1C141D041E041F040F
:100CD0005CF484E0CC0CDD1C8A95E1F7C601880F3A
:100CE000991F04970197F1F7FF90EF90DF90CF9055
:100CF00008958EBD00000DB407FEFDCF8EB508959A
:100D0000811106C02091290590912A052CBD9DBD19
:100D1000682F8AE00C941304CF93C82F80E00E94C0
:100D2000800680E00E947906EEE0F4E080E08C131B
:100D300004C081E0CF910C9480061EBC00000DB46D
:100D400007FEFDCF9EB591938F5FF1CF0F931F9359
:100D5000CF93DF93D82F80E00E94800680E80E9426
:100D600079060EE014E0C0E0CD1307C081E0DF910A
:100D7000CF911F910F910C948006F80181918F0102
:100D80000E947906CF5FF0CFCF93C82F80E00E94FA
:100D900080068C2F0E9479061EBC00000DB407FE51
:100DA000FDCFCEB581E00E9480068C2FCF910895B3
:100DB000CF93DF93D82FC62F80E00E9480068D2F1F
:100DC00080680E9479068C2F0E94790681E0DF916D
:100DD000CF910C9480066091DD02613184F4623021
:100DE0000CF462E06F70606889E00E94D8068AE5C2
:100DF0000E94C406682F64608AE50C94D8066FE0F0
:100E0000F1CFAF92BF92CF92DF92EF92FF920F930A
:100E10001F93CF93DF938091D3029091D402A0913E
:100E2000D502B091D6029C01AD0160E070E080E097
:100E300090E003E10E94682CA12CE8E4BE2EF8EEBD
:100E4000CF2EDD24D394E12CF12C00E010E00E94A1
:100E5000C42BC22FB32E6A017B01182FD92F00E1BA
:100E60000E94832C622F86E00E94D8062C2F3B2DF7
:100E7000A601B701812F9D2F08E00E94832C622FCD
:100E800087E00E94D8066C2F88E0DF91CF911F91F8
:100E90000F91FF90EF90DF90CF90BF90AF900C94A8
:100EA000D806CF93C82F81E00E94C406887F682FA0
:100EB0006C2B81E0CF910C94D8060895E8E6F4E01D
:100EC0008481958194839681958397819683878386
:100ED0008085928590878287818593859187838796
:100EE0008785968597879585968794859587848746
:100EF0000895CF9328E634E0BC01605F7F4FDC01AA
:100F0000F90140E0CD9150815C2750834F5F3496CA
:100F10004430C1F72F5F3F4F04968617970779F744
:100F2000CF91089540E150E06CE473E08CE794E0E9
:100F30000C941C28FC0101900020E9F73197AF01C7
:100F4000481B590BBC018CE894E00C94C2028F92B0
:100F50009F92AF92BF920F931F93CF93DF93CDB722
:100F6000DEB7A1970FB6F894DEBF0FBECDBF19A2B2
:100F7000423008F44AE08E010F5D1F4F842E912C01
:100F8000B12CA12CA50194010E94882AE62FB90159
:100F9000CA01EA30F4F4E05DD801EE938D01232B11
:100FA000242B252B79F790E080E0109719F0CD01E4
:100FB0000E949A07A1960FB6F894DEBF0FBECDBF70
:100FC000DF91CF911F910F91BF90AF909F908F9025
:100FD0000895E95CE1CFCF93DF930E949A07EC017B
:100FE00088E191E00E949A078C0F9D1FDF91CF91BD
:100FF0000895CF93DF930E94AF03EC0188E191E065
:101000000E949A078C0F9D1FDF91CF9108954F92F8
:101010005F926F927F928F929F92AF92BF92CF9288
:10102000DF92EF92FF920F931F93CF936B017C019E
:10103000742EAC019B010E94632A882399F08BE1F6
:1010400091E0CF911F910F91FF90EF90DF90CF90A3
:10105000BF90AF909F908F907F906F905F904F90D8
:101060000C949A0746015701E894B7F82FEF3FEF29
:101070004FE75FE7C501B4010E94632A81110DC0EB
:101080002FEF3FEF4FE75FE7C501B4010E949228C1
:1010900018161CF48FE191E0D4CF2FEF3FEF4FE70C
:1010A0005FE4C701B6010E94F12918161CF483E21F
:1010B00091E0C7CF2FEF3FEF4FE75FECC701B601DD
:1010C0000E94922887FDF3CF20E030E0A901C701FC
:1010D000B6010E94922810E000E087FF0AC06DE28E
:1010E0008CE894E00E9462038C01F7FAF094F7F820
:1010F000F094C0E060E070E080E09FE37C1641F097
:1011000020E030E040E251E40E949728CF5FF6CF24
:10111000A70196010E9426282B013C010E9410295C
:101120004B015C014AE00E94A7077C01E00EF11E22
:10113000CC23C1F1C501B4010E943F299B01AC0140
:10114000C301B2010E9425284B015C016EE28CE8CC
:1011500094E00E946203E80EF91EC15018F120E0ED
:1011600030E040E251E4C501B4010E94F6292B01B0
:101170003C010E9410294B01B12CA12C4AE0C50171
:10118000B4010E94A707E80EF91EC501B4010E9430
:101190003F299B01AC01C301B2010E9425284B01EC
:1011A0005C01DBCFC701CF911F910F91FF90EF90B2
:1011B000DF90CF90BF90AF909F908F907F906F9077
:1011C0005F904F900895CF92DF92EF92FF92CF936E
:1011D00087E291E00E94EB078EE480937C0062E05E
:1011E00070E080E090E00E94A20480917A00806428
:1011F00080937A0080917A0086FDFCCF8091780000
:101200002091790030E0322F2227032E000C440B6E
:10121000550B282B60E070E381E190E00E94AA2A40
:10122000B901330F880B990B0E94412960939002FA
:101230007093910280939202909393028FE391E0D6
:101240000E949A0720E030E04AE754E4609190025F
:101250007091910280919202909193020E9497283E
:1012600042E00E94070886E491E00E94EB0760EDEF
:1012700077E080E090E00E94A20460ED77E080E0FB
:1012800090E00E94A2040E94D404882341F080913F
:1012900031058C3009F464C038F48B30F1F060E033
:1012A00070E080EC9FE741C085518230C0F7C0916B
:1012B0002D056C2F70E0762F662766277F7780914B
:1012C0002E05682B90E080E00E943F292DEC3CEC3D
:1012D0004CEC5DE30E94F6295FC060912D0570E043
:1012E00090E080E00E943F296B017C01C0912E05B7
:1012F000C7FF0AC0AC019B0160E070E080E89FEB93
:101300000E9425286B017C01CF706C2F70E090E06B
:1013100080E00E9441292DEC3CEC4CEC5DE30E9406
:10132000F629A70196010E94262860938C027093EB
:101330008D0280938E0290938F020E94D4048823A2
:1013400051F0809131058B3030F08D3048F185516E
:10135000823008F474C060E070E080EC9FE73CC02D
:10136000C0912D056C2F70E090E080E00E943F2935
:101370006B017C0160912E056F7070E090E080E061
:101380000E9441292DEC3CEC4CEC5DE30E94F629D7
:10139000A70196010E942628C7FFC7CF9058C5CF46
:1013A00060912C0570E090E080E00E9441292DECD6
:1013B0003CEC4CEC5DE30E94F6296B017C016091F2
:1013C0002B0570E090E080E00E9441299B01AC0178
:1013D000C701B6010E942628609388027093890293
:1013E00080938A0290938B0289E491E00E949A078D
:1013F00060918C0270918D0280918E0290918F028B
:1014000042E00E94070887E591E00E94EB0780E632
:1014100091E00E949A076091880270918902809100
:101420008A0290918B0242E00E9407088BE691E0CD
:10143000CF91FF90EF90DF90CF900C94EB076091ED
:101440002B0570912C0576276727762790E080E0A2
:101450000E943F292DEC3CEC4CEC5DE30E94F62908
:10146000BBCF8C01EB018EE691E00E94EB07C80137
:101470000E949A076AE38CE894E00E946203BE012E
:1014800090E080E04AE00E94A70788E191E00E9496
:101490009A078CE894E00E94CA030E941906FFCFC5
:1014A000CF93DF936091D9027091DA02D62FD77073
:1014B000CB0153E0969587955A95E1F7837081307B
:1014C00059F008F445C0823009F444C068E471E082
:1014D00087E791E00E94310AC0E8CB0145E096958C
:1014E00087954A95E1F783708230C1F18330C1F16D
:1014F000813091F1C260672F77276115710521F066
:10150000C16082E20E94D8066C2F8DE10E94D8064D
:101510006D2F6295607F605A8091D90287FF646069
:101520008EE10E94D806D550D23060F48091D90265
:101530009091DA0223E0969587952A95E1F78370DA
:101540006CE009F064E086E2DF91CF910C94D8065C
:10155000C0E7C3CFC0E9C1CFC460CDCFC660CBCF99
:10156000C860C9CF0F931F93CF9380910D04813131
:1015700031F067EE73E087ED91E00E94310AC0918F
:10158000150487E090E00E943502C81380C08EE009
:1015900094E00E94F505992700916E0310916F0366
:1015A0002091700330917103061717072807390738
:1015B00009F070C0C0915A04CC7FC0935A04809146
:1015C000D802809359048091D70280935804809167
:1015D000CF029091D002A091D102B091D20280545A
:1015E0009342A109B1098093540490935504A093A8
:1015F0005604B093570481E194E00E94F50560938E
:101600005B0470935C0480935D0490935E048C2F64
:10161000816080935A0400911D0410911E048FE094
:1016200090E00E94350208171907B9F586E194E0A9
:101630000E94F505672F782F892F992787FD9A95A6
:1016400060936004709361048093620490936304D8
:1016500089E194E00E94F505672F782F892F99275B
:1016600087FD9A9560936404709365048093660483
:10167000909367048091160480935F04C360C093C5
:101680005A0482E090E0CF911F910F91089590E06D
:1016900080E0F9CF8FEF9FEFF6CF81E090E0F3CFBE
:1016A0000F931F93CF93DF9300D000D0CDB7DEB759
:1016B000DB011C969C911C971E963C911E971F96D1
:1016C0002C911F971D964C911D9749833A832B832C
:1016D0009C83BE016B5F7F4F9E012F5F3F4FF901DF
:1016E00011919F01412F42954F70F0E14F9FA00152
:1016F0001124E12FEF70E40FF52FF11DEE5BFD4F8C
:101700009491A90141505109FA0190832617370796
:1017100031F791E05BE1813039F0492F440F97FDBB
:1017200045278150942FF7CF8981982799838D0180
:1017300094E0FE013196A801DA018D91AD0161912D
:101740008627BD0161507109DB018C93BF01615097
:101750007109DB018C93E217F30771F791500C5F6D
:101760001F4F9111E6CF0F900F900F900F90DF91C8
:10177000CF911F910F9108953F924F925F926F9278
:101780007F928F929F92AF92BF92CF92DF92EF9211
:10179000FF920F931F93CF93DF93CDB7DEB7689778
:1017A0000FB6F894DEBF0FBECDBF8C0128E6C22E67
:1017B00024E0D22EAC01405F5F4FC6017801FC01EE
:1017C000D70120E03D9130832F5F34962430D1F74C
:1017D00024E0E20EF11C01964E155F0581F7ACE79F
:1017E000B4E0FE0131968CE894E05E2E6F2E2D91D0
:1017F00021938A179B07D9F7852D962D0E9479078B
:10180000442443948CE6A82E84E0B82E4E0139E19E
:10181000830E911C9BE1392E88E694E024E0DC01E4
:10182000712CEC914E2F42954F7030E1439FA001F7
:101830001124EF70E40FF52FF11DEE5BFD4FE491E5
:10184000EC937394149654E07512EBCF21500196EB
:101850002111E5CF0E945E07E8E6F4E0CE0145964F
:10186000BE016F5E7F4F9F01D9015C91DC015D93EA
:10187000CD01452F440F57FD83C0DB014C932C5FF6
:101880003F4F6F5F7F4F8816990671F78E893989B0
:1018900038272F89688D9A8992279627432F4927C1
:1018A00041934D895B899427952793839C8986274B
:1018B0008427852789278783242729273227338769
:1018C000AE16BF0659F6652D762D842D0E94500B5D
:1018D000852D962D0E9479074394BAE04B129CCF38
:1018E00088E694E0DC0140E0EC912E2F22952F70E9
:1018F00050E1259F90011124EF70E20FF32FF11DAD
:10190000EE5BFD4FE491EC934F5F1496443061F72A
:101910007A9401967110E6CF0E945E07652D762DB0
:101920008AE00E94500B852D962D0E947907D801E0
:10193000F60180E090819D938F5F34968430D1F7DB
:101940008FEFC81AD80A0C5F1F4FE016F10679F71F
:1019500068960FB6F894DEBF0FBECDBFDF91CF9172
:101960001F910F91FF90EF90DF90CF90BF90AF90BD
:101970009F908F907F906F905F904F903F900895D1
:1019800043257BCFFC01EE0FFF1FEE0FFF1FEE5D27
:10199000FD4F659175918591949108954F925F9255
:1019A0006F927F92AF92BF92CF92DF92EF92FF92AF
:1019B0000F931F93CF93C82F662379F010927A0369
:1019C0001092790310927E0310927D031092F70318
:1019D00080915A048C6080935A0483E090E00E94C6
:1019E000C20C2B013C0184E2A82E94EFB92EC12C2D
:1019F000D12CE12CF12C00E010E02C2F30E040E065
:101A000050E060E070E080E090E00E94FF2A295101
:101A10003C4F4F4F5F4F6F4F7F4F8F4F9F4FE8EEC1
:101A2000AE2EF3E0BF2E0E94932BA32FF42FE52FB1
:101A3000622F7A2F8F2F9E2FA30192010E94AA2A34
:101A4000A5E0A20FA0934F04C0905404D090550479
:101A5000E0905604F090570482E1D80E8AE7E81E21
:101A6000F11CA850BB0BA30192010E94F72AC61AD1
:101A7000D70AE80AF90AC0925004D0925104E092C1
:101A80005204F0925304CF911F910F91FF90EF9069
:101A9000DF90CF90BF90AF907F906F905F904F900E
:101AA00008958F929F92AF92BF92CF92DF92EF9262
:101AB000FF92CF93DF93C62FA0917903B0917A0361
:101AC0006D010B2E000CEE08FF08E0917B03F091F6
:101AD0007C034F010F2E000CAA08BB088823D1F00D
:101AE000482F50E09A010E94E52A6B017C0187E0B3
:101AF000F594E794D794C7948A95D1F7DF010E94B3
:101B0000E52A4B015C0197E0B594A79497948794DC
:101B10009A95D1F72091F703A0917D03B0917E03B0
:101B200030E00E94E52A860E971EA81EB91ED0E05E
:101B3000CE010E94C20C9B01AC01C501B4010E9400
:101B4000AA2A2B5F2093DB02CE010E94C20C9B01CC
:101B5000AC01ADEFBFEF0E94FA2A6C0D7D1D8E1D0A
:101B60009F1DDF91CF91FF90EF90DF90CF90BF90BE
:101B7000AF909F908F900895CF93C82F68E881E031
:101B80000E94D80681E00E94C40687FD06C061E27B
:101B900072E087E791E00E94310A81E00E945107DC
:101BA000C23009F043C06AE08DE10E94D80660E7C8
:101BB0008EE10E94D80661E28CE00E94D80660E4C3
:101BC00083E20E94D80683E30E94C406682F606403
:101BD00083E30E94D8066091DB028FE10E94D80661
:101BE00064E389E30E94D80660EC80E40E94D80692
:101BF0006FEF82E10E94D806EC2FF0E0E950FE4F33
:101C00006491609581E10E94D80685E0C1110BC006
:101C10006091CF027091D0028091D1029091D20256
:101C20000E94440686E0CF910C9451070E94500A0E
:101C30000E940107C0CFCF93C82F81E00E94C40645
:101C4000877064E972E049F48091D902877009F0E5
:101C50006AC0CC2331F062E672E087E791E00E942F
:101C6000310A68E081E00E94D80681E00E94C40643
:101C700066E672E087FDF1CF81E00E9451070E9485
:101C8000010761E28CE00E94D8066EE18DE00E94BF
:101C9000D8066BE082E10E94D80662E183E10E94EF
:101CA000D8066AEA8FE10E94D80662E187E20E94C4
:101CB000D80668ED80E30E94D80660E481E30E94C4
:101CC000D80661EC88E20E94D80664E989E20E94A5
:101CD000D80661EC8AE20E94D8066FEF81E20E948A
:101CE000D80662E082E00E94D80660E883E00E94A5
:101CF000D80661E084E00E94D80669E985E00E9488
:101D0000D80668E380E40E94D8066091CF02709103
:101D1000D0028091D1029091D2020E94440685E0C7
:101D2000CF910C9451078C2FCF910C94BC0DCF9375
:101D3000DF93CBECD2E010920D04E0914E0484E0EE
:101D4000E89FF0011124E553FD4F83AD94ADA5AD9F
:101D5000B6AD8C7F88879987AA87BB8783E891E196
:101D60009F878E87DF91CF910895E82FF0E0E352AF
:101D7000FE4FE491EF3F09F081500895AF92BF927A
:101D8000CF92DF92EF92FF920F931F93CF93DF9347
:101D90008091990281508093990281116CC078944E
:101DA00003E011E0C6E9D2E0BB24B394F80121912D
:101DB0008F012F3F09F459C0D880ED2CF12C30E071
:101DC000F901E25FFD4F8491F901E059FC4FC490A5
:101DD000F901E45AFC4FA490AA2009F457C08111DC
:101DE0000E94EA03EA2DF0E0EE0FFF1FEE5BFC4FCE
:101DF000A591B491EC91CE2231E020E009F430E0DD
:101E0000832F922FE816F90681F1DB24D882DD209A
:101E100061F10E9420066B017C0181E00E94C406F2
:101E200087FF81C082E10E94C40683FF32C0F2E0D6
:101E3000CF1AD108E108F108C092CB02D092CC02AF
:101E4000E092CD02F092CE026FEF81E10E94D806BF
:101E50006FEF82E10E94D80680E00E9451078091D6
:101E6000E4029091E5020E94F40F219682E0C939C4
:101E7000D80709F09BCFDF91CF911F910F91FF9071
:101E8000EF90DF90CF90BF90AF90089590E080E00A
:101E9000B9CF86FF43C0E091D902F091DA02CF01B9
:101EA00023E0969587952A95E1F7837061F4E770B2
:101EB000F0E0EE0FFF1FED56FF4F85919491C81A89
:101EC000D90AE108F108C092CF02D092D002E09284
:101ED000D102F092D2028DE10E94C40682FF1CC0A2
:101EE00082E20E94C40680930D0480E10E94C40631
:101EF000682F8DE00E94D80680910D040E948C0608
:101F000089E10E94C4068093D8028AE10E94C40637
:101F10008D538093D70298CF83E1E3CF87FF94CF8F
:101F200010920D0491CF8EE30E94C406A82E8FE379
:101F30000E94C40683FF09C0C092CB02D092CC029B
:101F4000E092CD02F092CE0287CF82FF14C0C09201
:101F5000CF02D092D002E092D102F092D20282E37C
:101F60000E94C40680930D040E948C061092D80231
:101F70001092D70271CFA2FE03C010920D046CCF55
:101F800062E373E087E791E00E94310ACF93DF9329
:101F9000EC010E941906E091C702F091C802A7EC7B
:101FA000B2E0309789F4E091C902F091CA02A9EC3D
:101FB000B2E0309789F090818181CE17DF0749F038
:101FC000DF01E92FF82FF5CF90818181CE17DF0750
:101FD00039F49C9311968C93DF91CF910C94BE0EA3
:101FE000DF01E92FF82FDDCFCF93DF93EC010E94C3
:101FF00019068EED92E00E94C60FD093E502C093C1
:10200000E4021092DF021092DE02E091C902F09128
:10201000CA02A9ECB2E0309741F48EED92E08D93C4
:102020009C93DF91CF910C94BE0EDF010190F08163
:10203000E02DF1CFCF92DF92EF92FF920F931F939B
:10204000CF93DF93EC016A017B0189010E9419069D
:10205000CE010E94C60FCA82DB82EC82FD821F8302
:102060000E8319821882E091C702F091C80227EC12
:1020700032E0309779F082819381A481B5818C1907
:102080009D09AE09BF09181619061A061B067CF42D
:10209000F983E883F901D183C083DF91CF911F9148
:1020A0000F91FF90EF90DF90CF900C94BE0E9F01A8
:1020B0000190F081E02DDDCF4F925F926F927F9281
:1020C0008F929F92AF92BF92CF92DF92EF92FF9248
:1020D0000F931F93CF93DF936B017C01EA01822F53
:1020E00090E00E94C20C4B015C0185E08093DB0212
:1020F00060917F037091800361157105D1F090E0CC
:1021000080E0A70196010E94572B00E10E94812CDC
:1021100029013A01AAEFB0E0A50194010E94EC2A3E
:1021200064157505860597050CF04CC08FEF8093FC
:10213000DB024091CB025091CC026091CD027091B4
:10214000CE02C40ED51EE61EF71EB501A40183E023
:10215000440F551F661F771F8A95D1F7C40ED51EF1
:10216000E61EF71EA091DB02B0E0A50194010E94DB
:10217000EC2A97018601061B170B280B390BB901B6
:10218000A8014093CF025093D0026093D102709384
:10219000D2024D575109610971099E018EED92E0FD
:1021A000DF91CF911F910F91FF90EF90DF90CF9033
:1021B000BF90AF909F908F907F906F905F904F9067
:1021C0000C941A10C301B2010E94AA2A2B5F20931B
:1021D000DB02AFCF89E492E29093E5028093E402C0
:1021E0000E94190680E00E941B0E0C94BE0E8AE32A
:1021F00091E29093E5028093E4020E94190680E048
:102200000E941B0E0C94BE0EEBECF2E021E020933A
:102210000B042685378520683787268710920D04A2
:10222000928F818F0E94190680E00E941B0E0C94F1
:10223000BE0E8AE493E20C94041184E995E20C94B6
:102240000411ABECB2E082E080930B04E091F10367
:10225000F0E0E252FE4FE491F0E0EF77E0681F9685
:10226000FC93EE931E974091F2035091F30360911B
:10227000F4037091F50318964D935D936D937C93E1
:102280001B9710920D040E94190680E00E941B0EFD
:102290000C94BE0E81E693E29093E5028093E402F3
:1022A0000C94211187EA95E29093E5028093E40271
:1022B0000C9421116F927F928F929F92AF92BF9256
:1022C000CF92DF92EF92FF920F931F93CF93DF9302
:1022D000CDB7DEB760970FB6F894DEBF0FBECDBFA7
:1022E0007B018A01282F30E0277F2230310549F019
:1022F0002430310509F4CBC0232B09F09FC0D12C29
:1023000098C083FD32C08AE992E00E94BC0B90E144
:10231000692EFE0131966F012AEA822E22E0922E6A
:1023200037E8732E0115110509F060C060919A021B
:1023300070919B0280919C0290919D020E94CF2AF5
:1023400060960FB6F894DEBF0FBECDBFDF91CF9180
:102350001F910F91FF90EF90DF90CF90BF90AF90C3
:102360009F908F907F906F900895EAE9F2E080E16E
:10237000DF011D928A95E9F7CACF01151105E9F52C
:10238000E62FF0E0E656FD4F80818058808311E013
:10239000D601E62D1D92EA95E9F7C6010E94BC0B15
:1023A0000981C6010E94250207FF03C0888987258D
:1023B000888B112349F01981C6010E94250217FF5D
:1023C00003C088898725888BF601D5018D915D0131
:1023D0009191119789278C938A149B04B1F710E08F
:1023E00000E08AE992E00E94BC0B9CCF8AE9A82E0B
:1023F00082E0B82ED701950160E0F90181919F013B
:102400009D91AF01415051098927FA0180836F5F87
:102410007D0101501109603109F0AFCF011511059F
:1024200001F710E0B5CF8E0D9F1D0E94BC0BB0E1EF
:10243000DB0E8D2D90E080179107A8F360E070E02F
:10244000CB017ECF80E1EAE9F2E0DE011196019056
:102450000D928A95E1F7CE0101960E94BC0BFE0118
:1024600031969701205F3F4F9191D7018C91892739
:102470008D937D0101501109A217B30719F00115C1
:10248000110591F78091A9028F5F8093A902011530
:102490001105C1F6D3CFCF92DF92EF92FF92CF9387
:1024A000DF93ECE7F4E080E1DF011D928A95E9F724
:1024B000E6E1F4E088E0DF011D928A95E9F73091CA
:1024C0005B0420915C0490915D0480915E04CEE0F9
:1024D000D4E0388320930F04909310048093110468
:1024E0003091DA032091DB039091DC038091DD03CE
:1024F00030931204209313049093140480931504D2
:1025000040E150E0BE0180E00E945A114091FB037F
:1025100087E090E0841B91092FEF3FE002C03595E2
:1025200027958A95E2F78881998128233923A3E5A5
:10253000B7E00E94D62AC0905404D0905504E09091
:102540005604F0905704B4E9CB0EB5E0DB1EB2E0C0
:10255000EB1EF11CC60ED71EE81EF91EC092FE032C
:10256000D092FF03E0920004F09201041092FC0369
:1025700081E090E001C0880F4A95EAF76091FA0384
:102580008E5F0E94510DC61AD70AE80AF90AC09256
:102590000204D0920304E0920404F09205048091B6
:1025A000DB028093FD03DF91CF91FF90EF90DF90EE
:1025B000CF900895CF92DF92EF92FF92CF93DF9367
:1025C0006B017C01EA018091720390917303827028
:1025D00096708230944059F40E944B12809172039D
:1025E0009091730392609093730380937203809130
:1025F000DB02873059F54091CB025091CC026091BB
:10260000CD027091CE024C0D5D1D6E1D7F1DDB0154
:10261000CA010A97A109B1098093CF029093D00211
:10262000A093D102B093D20288E08093DB02475896
:102630005109610971099E018EED92E0DF91CF9100
:10264000FF90EF90DF90CF900C941A102091DC0255
:10265000AE01C701B601DF91CF91FF90EF90DF90FF
:10266000CF900C945C104DE151E164EB74EC84E08C
:1026700090E00C94DA122091E90330E0A4E2B4EF88
:102680000E94D62A49E151E10C94DA129091AA02F3
:10269000911106C06FED72E087E791E00E94310A68
:1026A000903141F440E150E06AEA72E080E00E943B
:1026B0005A1190E0E92FF0E0E655FD4F80819F5FD1
:1026C0009093AA020895CF930E94190680E00E9479
:1026D00051070E94BE0E8EED92E00E94C60FEBECF9
:1026E000F2E08DE991E0DF019C011D922150304024
:1026F000E1F70E944613C82F0E9446139C2F909327
:10270000B9038093B803109273031092720310926E
:10271000770380E88093ED031092F10388E096EE52
:10272000A3EDB3E38093F2039093F303A093F40338
:10273000B093F50321E02093E9038093060490937E
:102740000704A0930804B093090483E08093FA037C
:102750008FEF8093FB03CF910895CF93DF93E6E053
:10276000F3E090E4DF011D929A95E9F7E6E4F3E0E7
:1027700090E2DF011D929A95E9F7E8EEF2E09EE122
:10278000DF011D929A95E9F727E030E03093670367
:1027900020936603811162C083E0C6E0D3E0A6E423
:1027A000B3E093E0980F2FE330E044E0849FF00122
:1027B0001124EF55FF4F45915591659174914993BF
:1027C0005993699379932D933D938F5F8913EDCF3F
:1027D00088EE93E09093E7028093E602CEE0C09308
:1027E000E8020E9446138F708093E90284E690E02D
:1027F0009093EF028093EE02C093F0020E94461382
:102800008F708093F1028AE090E09093F7028093BA
:10281000F6028BE18093F8020E9446138F7080933A
:10282000F9020E9420066093FA027093FB028093E3
:10283000FC029093FD026093F2027093F302809386
:10284000F4029093F5026093EA027093EB02809396
:10285000EC029093ED02DF91CF91089580E09DCF3F
:10286000CF92DF92EF92FF92CF93C82F0E94461330
:10287000F82E0E9446139F2D6C01853224EF92079B
:1028800020F024E2C21A24EFD20AF12CE12CCC234E
:1028900069F06C2F0E94682A292F30E0A4E2B4EF7F
:1028A0000E94D62AC60ED71EE81EF91EC701B60121
:1028B000CF91FF90EF90DF90CF900895CF92DF926D
:1028C000EF92FF928091DA039091DB03A091DC03F9
:1028D000B091DD03892B8A2B8B2B09F05DC0809191
:1028E0007203909173039C012079332769E377E0A9
:1028F000232B21F5109269038E7D977E90937303AD
:102900008093720310920A04109278030E94461377
:1029100063E00E94682A909368038EE080937503B9
:1029200085E08093760381E00E94AD13809172036D
:102930009091730393FF06C06AEB72E087ED91E01C
:102940000E94310AC090EA02D090EB02E090EC02C3
:10295000F090ED0288E00E943014C60ED71EE81EEB
:10296000F91EC092CB02D092CC02E092CD02F0923E
:10297000CE028091720390917303846090937303ED
:10298000809372038BEB93E20E94F40F81E0FF903F
:10299000EF90DF90CF90089580E0F9CFCF92DF9253
:1029A000EF92FF920F931F936B017C01842F0E9483
:1029B0003014C60ED71EE81EF91E2091690322238B
:1029C000A9F000916A0310916B0320916C03309180
:1029D0006D03D701C601801B910BA20BB30B8C01B9
:1029E0009D0110161106120613068CF4C0926A039C
:1029F000D0926B03E0926C03F0926D0380917203AE
:102A000090917303916090937303809372031F916D
:102A10000F91FF90EF90DF90CF900895FF920F936A
:102A20001F93CF93DF93E7ECF2E084E0DF011D9288
:102A30008A95E9F761E08AE00E94410460E082E063
:102A40000E94410460E087E00E94410460E088E069
:102A50000E944104CFB7F89480919402811127C05D
:102A6000E6E6F3E08491EAE7F3E09491E82FF0E002
:102A7000EE0FFF1FE650FE4FA591B491EC91E923B4
:102A800021F461E08AE00E94130461E08AE00E9480
:102A900041048CB580618CBD8CB580648CBD61E0D7
:102AA0008DE00E94410461E08BE00E94410480912E
:102AB00094028F5F80939402CFBF0E9419060E94F8
:102AC0002006625C7F4F8F4F9F4F0E9444060E94FA
:102AD0002006685C7E4F8F4F9F4F0E94440680E027
:102AE0000E94510782E40E94C406823131F061EBFA
:102AF00072E087E791E00E94310A82E00E94BC0DFB
:102B000081E00E94C40687708530D1F7CAEAD2E01E
:102B100008E010E08CE20E94C4068170F82E8CE27E
:102B20000E94C4068170F816A9F38981880F8F2945
:102B300089830150110971F72196B2E0C93BDB0787
:102B400039F780E18093AA0280E00E9451070E9439
:102B5000BE0E80E490E090937303809372030E9412
:102B600063131092E80384EF8093E70380E8809377
:102B7000ED038FE892E09093800380937F03DF91D1
:102B8000CF911F910F91FF900C945E14AF92BF9262
:102B9000CF92DF92EF920F931F93CF93DF93FC01BD
:102BA000AAE9B2E080E1ED0119928A95E9F791E096
:102BB0001F969C931F979C931596EC9215971696CB
:102BC0004C93169717965C93179718966C931897D3
:102BD00019967C9319971A960C931A971B961C9327
:102BE0001B971C962C931C971D963C9390E1ACE789
:102BF000B4E001900D929A95E1F7A501B60184E049
:102C0000DF91CF911F910F91EF90DF90CF90BF9008
:102C1000AF900C945A112F923F924F925F926F9205
:102C20007F928F929F92AF92BF92CF92DF92EF925C
:102C3000FF920F931F93CF93DF93CDB7DEB72A9701
:102C40000FB6F894DEBF0FBECDBF20910D042887CC
:102C5000222E312C3CE023163104E4F410920D04B2
:102C600080E02A960FB6F894DEBF0FBECDBFDF918D
:102C7000CF911F910F91FF90EF90DF90CF90BF9079
:102C8000AF909F908F907F906F905F904F903F900C
:102C90002F90089580910E0489838370F9F69981AD
:102CA000907E9E83903611F0903AC1F68FE094E0CA
:102CB0000E94F505C090DA03D090DB03E090DC03BE
:102CC000F090DD03C616D706E806F90639F6A0919E
:102CD0001304AB832A2F2F70822F90E09D838C8367
:102CE0004C0198E0890E911CA4E02A1A310828149E
:102CF00039040CF4B3CF821493040CF018C1F4011E
:102D0000E25FFB4F2081822F90E09A838983AC8120
:102D1000BD8119964D014090DE035090DF03609015
:102D2000E0037090E10320911404309115042419FC
:102D30003509420E531E611C711C20E1EAE9F2E0E4
:102D4000DF01322F1D923A95E9F739E430939A0268
:102D500031E030939F028885845088878093A90250
:102D6000C092A002D092A102E092A202F092A3022D
:102D70004092A4025092A5026092A6027092A7020D
:102D8000EAEBF3E0ACE7B4E001900D922A95E1F7AD
:102D9000A1016EE074E082E00E945A118B019C0157
:102DA000F101E25FFB4F60817181828193810E941A
:102DB000CF2A061717072807390709F04FCF809148
:102DC000DE039091DF03A091E003B091E103481688
:102DD00059066A067B0608F0AFC084159505A6055E
:102DE000B7050CF43BCF0197A109B10984159505EE
:102DF000A605B70509F032CF8091E603882309F4D0
:102E00002DCF9E81903A09F029CFA1E0B0E0BF8399
:102E1000AE838091E603811103C02B8124FF09C09A
:102E200080917203909173038061909373038093F8
:102E30007203109278031092E8038091E7038038C0
:102E400019F084EF8093E7038091D9029091DA0220
:102E5000FC01A3E0F695E795AA95E1F7E37087708A
:102E600033E0839FC0011124E80FF92FF11DE255D3
:102E7000FE4FE4918091D702082E000C990B8054EC
:102E80009109ED58FF0B8E1B9F0B97FD80E08093FF
:102E9000EA031A86198689859A85AC81BD818A17CD
:102EA0009B070CF460C02E813F81232B19F589818B
:102EB0009A818F3F9807F1F05101A818B9081A14A8
:102EC0001B04C4F49401225F3B4F69014091DA0373
:102ED0005091DB036091DC037091DD03892B09F0D5
:102EE000ECC18AEB93E0EE24E394F12C9301820190
:102EF0000E94C61580910A04882349F080910B0432
:102F00003B8190E835FF90E4892B80930B048091FE
:102F10000B04A981BA81119609F0D2C18062809315
:102F20000B0480920C0410920D0481E09ACE2FEFD6
:102F30003FEF3A832983EFCED301C2010196A11D51
:102F4000B11D8093DE039093DF03A093E003B09361
:102F5000E103BE8180E2B03A09F080E08093E603AD
:102F60001F821E8256CFE985FA85EA5EFB4FE0811B
:102F7000E250E13108F097CFF0E0EF53F84E0C94B7
:102F8000C92AD217D8177B18571850189F185317EB
:102F900053175317531753175317531753175317E1
:102FA000E018FC1889859A8503969A87898773CFDC
:102FB000E985FA85E95EFB4F6081E985FA85E85E7F
:102FC000FB4F80819181E985FA85E65EFB4F708138
:102FD000A985BA851596BA87A987B7E8B093EB0398
:102FE000272F207F09F058C0009709F455C0209181
:102FF0006603309167032095309528233923232BCE
:1030000009F04AC0EBECF2E030E020E041E050E0B3
:10301000022E02C0440F551F0A94E2F7DA01A823DA
:10302000B923AB2B61F0C3ACD4ACE5ACF6ACCD2886
:10303000CE28CF2821F440955095842395232F5FE7
:103040003F4F34962031310509F790936703809301
:103050006603862F82958F70E82FF0E0E252FE4FD4
:10306000E491EF3F29F49091EB039D7F9093EB0364
:103070009091EB039F77973059F47F7070937403AE
:103080006F70E62FF0E0ED53FE4F64910E94E10572
:1030900081E08093E803FFCE26E82093EB03D9CFAD
:1030A00081E08093EC0389859A8501967ECFE9853E
:1030B000FA85E95EFB4F10811F7089859A85885ECD
:1030C0009B4F0E94FB05E12FF0E0E252FE4FE4919E
:1030D000EF3F09F4FFC0A2E8A093F6036115710564
:1030E0008105910509F002C129853A852B5F3F4F83
:1030F0003A872987D0CEE985FA85E95EFB4F2081A2
:103100002F3F49F4809172039091730380649093F0
:103110007303809372032F70209369030E9420062B
:1031200060936A0370936B0380936C0390936D03B9
:1031300081E08093EF0389859A85029636CFE985F1
:10314000FA85E95EFB4F108189859A85885E9B4FE1
:103150000E94FB05AB01BC01E985FA85E55EFB4FEA
:10316000E08190E89093F0034115510561057105E8
:1031700011F18E2F82958F70AFE0B0E0A81BB109DE
:103180002FEF3FEF02C036952795AA95E2F7EF7033
:103190008FEF9FEF02C0880F991FEA95E2F728236F
:1031A0003923812F0E945002882329F08091F00357
:1031B00083608093F00329853A852A5F3F4F98CF3B
:1031C00089859A85895E9B4F0E94FB056115710573
:1031D0008105910579F0609306047093070480934C
:1031E00008049093090481E88093F90389859A85FE
:1031F0000496DBCE80E8F8CF809172039091730340
:1032000081FD56C0E985FA85E75EFB4F208120935A
:103210004E04826090937303809372038091F8034D
:10322000811106C063EE74E087ED91E00E94310ADF
:10323000E985FA85E95EFB4F80819181AEE1A89F27
:10324000B001A99F700D112490E080E024E234EFDA
:1032500040E050E00E94662BE8EEAE2EF3E0BF2E79
:10326000C12CD12CE12CF12C00E010E00E94932B1A
:1032700059016A018091CF029091D002A091D102B0
:10328000B091D2028A0D9B1DAC1DBD1D86559E407E
:10329000AA47B1098093540490935504A09356040F
:1032A000B093570410925A0461E08EE10E94CE0C54
:1032B00029853A852C5F3F4F1BCF8AEC93E013CED4
:1032C000806180930B0480920C0488858819809318
:1032D0000D042BCE30E83093F603672B682B692B57
:1032E00009F402CFB1E8B093F603FECEA3E8A093B1
:1032F000F6031093F1036093F2037093F30380934A
:10330000F4039093F503F0CE2F923F924F925F9289
:103310006F927F928F929F92AF92BF92CF92DF92E5
:10332000EF92FF920F931F93CF93DF93CDB7DEB74A
:1033300062970FB6F894DEBF0FBECDBF80917203C7
:10334000909173039C01217C3327232B09F0FAC54C
:103350004091DA035091DB036091DC037091DD034F
:10336000452B462B472BE1F482FD1AC062960FB61F
:10337000F894DEBF0FBECDBFDF91CF911F910F91AB
:10338000FF90EF90DF90CF90BF90AF909F908F9085
:103390007F906F905F904F903F902F900C945E14B1
:1033A0000E9420062B013C018090720390907303D1
:1033B0009A8A898A94012270332781FE2AC140911A
:1033C0005004509151046091520470915304DC01F7
:1033D000C20183589F4FAF4FBF4F841B950BA60B65
:1033E000B70B181619061A061B062CF468E078E0CD
:1033F00087ED91E001C5DB01CA018D579109A10953
:10340000B10989839A83AB83BC8389899A898C7338
:103410009927892B09F493C529883A8894E22922AF
:103420003324A989BA89B3FF09C1E0916603F091F9
:103430006703FA87E987809176038F7021E030E097
:10344000490102C0880C991C8A95E2F79C868B86FC
:10345000AFE0930182011E52264B34490D871E872F
:103460002F87388BCD84DE84EF84F888EBECF2E094
:1034700090E080E0B0E02A2F30E0A901082E02C0E1
:10348000559547950A94E2F740FF12C0478D50A129
:1034900061A172A146015701841A950AA60AB70ACA
:1034A000181419041A041B041CF4B82F6A017B01B8
:1034B000019638968430910501F72B2F30E03E833A
:1034C0002D838901E3E0000F111FEA95E1F7F80170
:1034D000E553FD4F868D90E18B2E912CB12CA12CC4
:1034E00021E0280F8F50203108F4822F282F30E060
:1034F00041E050E0082E02C0440F551F0A94E2F745
:1035000069857A8546235723452B09F487C0F9013D
:10351000EE0FFF1FEA5BFC4F40815181EB85FC857C
:103520004E235F23452B09F479C0220F331F220F4E
:10353000331FF901E553FD4F43AD54AD65AD76AD95
:10354000437055276627772784169506A606B70683
:1035500009F064C0F801E553FD4F868F809368033E
:10356000C092CB02D092CC02E092CD02F092CE0279
:1035700009891A89177F109373030093720380914E
:1035800072039091730320916903211102C090FF8F
:1035900012C040916A0350916B0360916C0370916B
:1035A0006D0397018601041B150B260B370B37FFA4
:1035B00002C06A017B019C012270332781FF47C052
:1035C00044E455E968E070E02114310421F448ED49
:1035D00058EB65E070E04C0D5D1D6E1D7F1D898010
:1035E0009A80AB80BC80481959096A097B09141676
:1035F0001506160617065CF540E1C501B4016C56C8
:103600007A4F8D4F9F4F0E94CE14C12CD12C760142
:103610002CC419821A821B821C82F7CE915009F0A9
:103620005FCF81E090E00D8002C0880F991F0A945F
:10363000E2F78095A82309F015CF92CFC090CB0276
:10364000D090CC02E090CD02F090CE0298CFB301A2
:10365000A20143585F4F6F4F7F4F46015701841AB5
:10366000950AA60AB70AB501A40177FFF5C39090A1
:103670007603232809F458C185FF54C1A09078032C
:10368000A9820981015009830F3F09F046C180ECEE
:1036900080930E0448E050E067EE71E08FE094E024
:1036A0000E941C2848E050E06FEE71E087E194E052
:1036B0000E941C289091B8038091B90390931F0435
:1036C000809320040E94920743E150E06EE074E092
:1036D0008AE00E945A11609324047093230480931B
:1036E00022049093210487E180930D048091B80314
:1036F0009091B90301969093B9038093B80383E343
:1037000093E19093E5028093E402E92DF0E0E25228
:10371000FE4F8491E091770330E2E39FF0011124A2
:103720008F79E82BF093DA02E093D9029092DC02D1
:1037300080917203909173038F76967F8068986072
:103740009093730380937203A091680344E0A49F55
:10375000D0011124A553BD4FDB96CD90DD90ED90A7
:10376000FC90DE97A0910D043E2F3770B0E009F079
:10377000B1C21B9603E0AA0FBB1F0A95E1F724E232
:1037800034EF0E94E52A20E533EC40E050E00E944F
:10379000AA2A49015A01D701C60183709927AA278D
:1037A000BB275CEFC522C092D302D092D402E09234
:1037B000D502F092D60223E0880F991F2A95E1F7EF
:1037C000FC01E553FD4F858D8093DD02A38DB48D03
:1037D000A50194010E94EC2A640D751D861D971D9C
:1037E000678F70A381A392A380916903882399F0C6
:1037F00004C0880C991CAA1CBB1C8A95D2F7480CE3
:10380000591C6A1C7B1C40926A0350926B036092A5
:103810006C0370926D030E94190681E00E94C40639
:1038200087706BE072E009F0E5C28091D902877081
:1038300009F0D5C260E181E00E94D80681E00E94D3
:10384000C4066DEA71E0803109F0D4C281E00E94C3
:10385000510762E082E00E94D80660E883E00E949F
:10386000D80661E084E00E94D80669E985E00E94FC
:10387000D80660E085E20E94D80665E086E20E94F4
:10388000D80662E187E20E94D80660ED80E30E94DC
:10389000D80660E481E30E94D80661EC88E20E94C9
:1038A000D80664E989E20E94D80661EC8AE20E94A7
:1038B000D8060E9401070E94EB0664E380E40E94A0
:1038C000D80660910D046F5F82E30E94D806609174
:1038D0000D0480E00E94D80680910D040E94A60687
:1038E00083E00E94510762960FB6F894DEBF0FBEC8
:1038F000CDBFDF91CF911F910F91FF90EF90DF909F
:10390000CF90BF90AF909F908F907F906F905F907F
:103910004F903F902F900C94BE0E892D0E94B50EB3
:10392000982EAFCE80E0B4CE4091DE035091DF03FD
:103930006091E0037091E10340385F4F6F4F7F4F1C
:10394000E0F082E391E262960FB6F894DEBF0FBE1C
:10395000CDBFDF91CF911F910F91FF90EF90DF903E
:10396000CF90BF90AF909F908F907F906F905F901F
:103970004F903F902F900C94F40F30910A04C09018
:10398000E203D090E303E090E403F090E50331110B
:1039900006C02FEFC216D206E206F20691F2BC0173
:1039A00068717727209183036031710509F420E065
:1039B000827094708230944009F07DC180E18093E0
:1039C00016048091FB0390E1899FA001112480914E
:1039D000FA03842B809317048AE090E04091EF0370
:1039E000442341F0FC01E25FFB4F44E04083019639
:1039F0001092EF03A091F603AA2381F0AC01455386
:103A00005D4FFA01ED5BFE4FB5E0B0834C5B5E4F5E
:103A1000A370FA01A08302961092F6034091EC0382
:103A20004423A1F0AC0145535D4FFA01ED5BFE4F1D
:103A3000A6E0A0833196AFEFA0834B5B5E4FE09191
:103A4000EA03DA01EC9303961092EC03A091EB03E6
:103A5000AA2381F0AC0145535D4FFA01ED5BFE4FA7
:103A6000B3E0B0834C5B5E4FA770FA01A08302966F
:103A70001092EB034091F803442331F0FC01E25F24
:103A8000FB4F42E1408301964091E803442339F023
:103A90004091E70347FD1092E7031092E803A091DD
:103AA000F903AA2381F0AC0145535D4FFA01ED5BA8
:103AB000FE4FB1E1B0834C5B5E4FA170FA01A08371
:103AC00002961092F903A091F003AA2381F0AC01B1
:103AD00045535D4FFA01ED5BFE4FB7E0B0834C5BA1
:103AE0005E4FA370FA01A08302961092F00360313A
:103AF000710509F4E3C0F5E0F20FF983482F8980DE
:103B0000880E10E4181508F4DCC0E1E0603171059E
:103B100009F4E0E050E450930E045091E603609104
:103B2000ED03562B6091E70367FDCFC060E448507A
:103B3000452B462B409313047091DA036091DB030D
:103B40005091DC034091DD0370930F0460931004E7
:103B5000509311044093120431110DC04FEFC41A59
:103B6000D40AE40AF40AC092E203D092E303E0929A
:103B7000E403F092E5034091E2035091E3034150E6
:103B8000510940931404509315041092E603EE2358
:103B900009F43FC040918203442341F040E8409340
:103BA0000E04311103C031E030930A04FC01E25FDE
:103BB000FB4F309181033083BC01615F7B4F6B0110
:103BC000A22EB12CA50164E873E0C6010E94B22CBC
:103BD0008091810381117BC08AEB93E0A114B10431
:103BE000C1F00091E2031091E3032091E4033091CE
:103BF000E50301501109210931094091DA0350917F
:103C0000DB036091DC037091DD03F12CE12C0E9459
:103C1000C6158091E2039091E303A091E403B09173
:103C2000E5030197A109B1096091DA035091DB0323
:103C30004091DC033091DD0320E10AE912E0F80154
:103C4000A22E1192AA94E9F779E470939A02109245
:103C50009F027CEF780D7093A9026093A0025093AD
:103C6000A1024093A2023093A3028093A4029093F6
:103C7000A502A093A602B093A702EAEBF3E0ACE79B
:103C8000B4E001900D922A95E1F7282D2450330BD2
:103C90008901A9016EE074E082E00E945A11F801E6
:103CA000E25FFB4F638372838183908380920D0474
:103CB0008BE393E126CD88E090E090CE04E0098389
:103CC0001DCF54E0852E880E24CF60E030CF8AECE3
:103CD00093E084CF66E0630F660F660F28E035300F
:103CE00008F420E0CD0113E0880F991F1A95E1F741
:103CF000861B91094C96B0E0A0E0E7FD02C0A0E170
:103D0000B0E08A0F9B1F4F2F5527452B09F464C045
:103D100044E150E0841B950B48E050E0181619066A
:103D2000CCF4621B70E0860F971F01970E94742AE3
:103D3000CF01A5E096958795AA95E1F7837090E06D
:103D40000596869FA001879F500D969F500D1124C8
:103D5000485F5F4F440F551F440F551F4F5C5F4F27
:103D600081E0830F73E0F695E7957A95E1F7E370CC
:103D70008E1BE9E0FDE3853050F08450990BE9E0BB
:103D8000FDE302C0F595E7958A95E2F784E0052EFC
:103D9000000C660B770B9A01AB0104C0220F331F96
:103DA000441F551F8A95D2F7A4E2B4EF0E94EC2A73
:103DB0009F01F7FF02C02F5F3F4F3595279589017F
:103DC000330F220B330B600F711F821F931F9F0154
:103DD000FF0F440B550BDBCC50E040E09BCF68E875
:103DE00081E00E94D80681E00E94C40687FD06C0DB
:103DF00069ED71E087E791E00E94310A81E00E945D
:103E000051070E94500A0E9401078AE00E94C406DE
:103E1000807F682F68608AE00E94D8060E94EB06C7
:103E200064E389E30E94D80660EF80E40E94D8062C
:103E30006FEF82E10E94D80667EF81E10E94D80609
:103E400060E08EE00E94D80660E08DE00E94D80617
:103E500060910D0482E23ECD232B09F4F7C0C1141A
:103E6000D104E104F10409F486C0809172039091B9
:103E7000730391FFA7C0C301B20163587F4F8F4FF7
:103E80009F4F6D837E838F8398874091020450916A
:103E900003046091040470910504DB01CA018D8064
:103EA0009E80AF80B88488199909AA09BB09B7FF19
:103EB000D6C01091FC0317FD85C08091FB03E1E0A3
:103EC000F0E001C0EE0F8A95EAF71E0F1093FC0395
:103ED00017FD78C0A12FB0E020E030E345E750E0C7
:103EE0000E94EC2A4B015C0187E0B594A79497945B
:103EF00087948A95D1F78091FE039091FF03A0915A
:103F00000004B0910104880E991EAA1EBB1E82E017
:103F10008E0F6091FA03810F0E94510D861A970A45
:103F2000A80AB90A8092020490920304A0920404A1
:103F3000B09205048091DB028093FD03A6CF232B72
:103F400009F063CB62960FB6F894DEBF0FBECDBF0B
:103F5000DF91CF911F910F91FF90EF90DF90CF9065
:103F6000BF90AF909F908F907F906F905F904F9099
:103F70003F902F900895C12CD12C7601C39475CF1A
:103F80004D575109610971092AEE30E18EED92E039
:103F900062960FB6F894DEBF0FBECDBFDF91CF9112
:103FA0001F910F91FF90EF90DF90CF90BF90AF9057
:103FB0009F908F907F906F905F904F903F902F9049
:103FC0000C941A10C114D104E104F10461F0D7017A
:103FD000C60189809A80AB80BC8088199909AA099A
:103FE000BB09B7FD33C00E94970E80914F048093A8
:103FF000DB028091500490915104A0915204B09141
:1040000053048093CF029093D002A093D102B09337
:10401000D20289809A80AB80BC80481859086A080F
:104020007B0877FC0CC08AE391E29093E5028093D1
:10403000E4020E94190680E00E941B0E54CC27EF78
:1040400030E149815A816B817C81A0CFB701A60103
:104050004D5751096109710926E730E297CFC11424
:10406000D104E104F10441F0D701C601841B950B92
:10407000A60BB70BB7FDEACF8091FD038093DB025F
:104080004093CF025093D0026093D1027093D2023A
:104090008091060490910704A0910804B09109044E
:1040A0008093D3029093D402A093D502B093D6020A
:1040B000E091FA03F0E0E252FE4FE491F0E0EF7796
:1040C000E068F093DA02E093D90210920D04DB016C
:1040D000CA0184199509A609B70983389F4FAF4FC4
:1040E000BF4F0CF04DCF6EE878E082C90C94841974
:1040F000CF92DF92EF92FF92CF93DF93EC010E9479
:1041000020066B017C014AE0F7FE0DC06DE28CE8F1
:1041100094E00E94620366277727CB016C197D0922
:104120008E099F094AE00E94A70784E591E00E945A
:104130009A07FE013197EF30F10508F083C0ED5585
:10414000FF4D0C94C92AB220BE20C120C420C72034
:10415000CA202221D420DB20ED20DE20E120E42033
:10416000E720EA208EE991E00E94F907DF91CF91E4
:10417000FF90EF90DF90CF900C9484198EE891E03F
:10418000F3CF8DE791E0F0CF8BE691E0EDCF80E6C5
:1041900091E0EACF86E591E00E94F9071092E803EA
:1041A00080E88093E703E2CF87E491E00E94F9077B
:1041B0000E940E15DBCF86E391E0F8CF88E291E014
:1041C000D3CF8FE191E0D0CF81E191E0CDCF84E0FA
:1041D00091E0CACF86EF90E0C7CF88EE90E00E94D2
:1041E000F90780910B0487FF04C08BED90E00E94DB
:1041F000F90780910D04882381F081ED90E00E9401
:10420000AF0360910D0470E090E080E04AE00E940E
:10421000A70789EC90E00E94F90762E370E080E074
:1042200090E00E94A2040E942006AB01BC01405312
:104230005D4E6C4E7F4F2FEA35E28FEB92E00E948D
:104240001A1094CF89EB90E00E94AF034AE067E038
:1042500070E080E090E00E94A70788E191E00E9472
:104260009A0784CF0E9463130E945E148CE090E052
:104270000C947820CF92DF92EF92FF92CF93DF934E
:1042800080910D04882309F476C0C0905404D09026
:104290005504E0905604F0905704C0915A040E94CF
:1042A000B20A181619060CF066C0C37079F460E003
:1042B0008DE00E94CE0CC4E0D0E08091720390911A
:1042C000730391FD0E944B12CE01B9C02EEED21A9B
:1042D0008091540490915504C81AD90A6091F7034B
:1042E000662379F02091790330917A03C601821B0D
:1042F000930B70E06F5F7F4F0E94742A6901C60EB6
:10430000D71E20915A0422FD1DC0809179039091FF
:104310007A038C199D0997FF03C0919581959109A6
:1043200090937C0380937B0340917D0350917E03A7
:104330004817590724F490937E0380937D03277FC9
:1043400020935A04D0927A03C09279031092780392
:104350001092F70380915A04982F9B7F90935A04F0
:104360008370C4E0D0E009F072C064EC77E087EDC0
:1043700091E00E94310AC0907903D0907A030D2C0D
:10438000000CEE08FF0860E072E18AE790E06C192B
:104390007D098E099F09C0905404D0905504E09087
:1043A0005604F09057046C0D7D1D8E1D9F1D60936B
:1043B0005404709355048093560490935704C0900E
:1043C0005B04D0905C04E0905D04F0905E0420E813
:1043D000C20ED11CE11CF11CC0925B04D0925C04A3
:1043E000E0925D04F0925E042091F7032F5F20932A
:1043F000F7036C567A4F8D4F9F4F44E00E94CE14C6
:104400008091F703853148F0809172039091730396
:104410008062909373038093720380914F04C3E092
:10442000D0E08536A0F080917203909173038D7D6A
:10443000997F90937303809372038BE090E0DF91F8
:10444000CF91FF90EF90DF90CF900C947820C090A8
:104450005404D0905504E0905604F090570482E143
:10446000D80E8AE7E81EF11C63E080E00E94510D3F
:10447000C61AD70AE80AF90AC0925004D092510429
:10448000E0925204F09253048091DB0280934F0437
:1044900014CF80910D04882359F084E080930B049D
:1044A0000E940B16882321F08DE090E00C94782078
:1044B0000C948419CF938091720361E677E087FFB3
:1044C000A6C080910D048111DCC0E0910A04EE23A6
:1044D00009F486C0E83050F5EF5FE0930A04F0E09D
:1044E000ED52FE4FC49180917603C150E0F460E834
:1044F0000E94E1056091CF027091D0028091D102BB
:104500009091D20243E00E94CE1480917203909168
:1045100073038F7790937303809372030E948419BF
:1045200081E0CF9108950E94B50EDFCF80E68093A1
:104530000B048091E703803819F08F5F8093E703C5
:1045400010920D0410920C048091720390917303E9
:104550009C012777309373032093720320910B04FF
:10456000277061F094FF0AC087779F7E9093730352
:10457000809372038FE090E00E9478208AE090E0C0
:104580000E9478208091E7038931C4F080917603FE
:104590000E94B50E60E80E94E1058CE08093E7037D
:1045A0008091720390917303806290619093730382
:1045B000809372038EE090E00E9478202091F803AF
:1045C000222309F4ADCF809172039091730381FF90
:1045D00009C082E090E00E9478201092F803A0CFFA
:1045E00080E2A5CF21502093F803211199CF40916B
:1045F000DA035091DB036091DC037091DD03452BFE
:10460000462B472B11F082FF06C063EF76E087ED63
:1046100091E00E94310A86FD83CF10925A041092D5
:10462000E60310920A048E7781609093730380935F
:1046300072030E94970E0E942006AB01BC014C5DE4
:10464000594F64487F4F40935404509355046093EE
:104650005604709357044093CF025093D002609356
:10466000D1027093D20222E733E28EED92E00E94F3
:104670001A100E94190681E00E941B0E0E94BE0EB5
:104680004FCF0E940B1681115FCF90910B0490FFCA
:104690001CCF47CF80910D0481110EC0A091E9037A
:1046A000B0E0119624E234EF0E94E52A2091F10354
:1046B0004AE451E10C945C100E945A22882371F361
:1046C000089580910D0481110BC010920B040E947B
:1046D0002006645973428D4F9F4F42E00E94CE14D2
:1046E0000C945A220E94190680E00E9451070E94F1
:1046F000BE0E8EED92E00E94C60F80910D048111D6
:104700000DC080917203909173038C7F909373031B
:104710008093720381E090E00C9478200E94B20AAA
:1047200018161906BCF010920D040E94190681E0BB
:104730000E941B0E0E94BE0E4091540450915504DD
:10474000609156047091570422E733E28EED92E0B7
:104750000C941A1061E08DE00E94CE0C80917203DF
:10476000909173038E7F82609093730380937203A2
:1047700082E090E0D1CF85E090E00C94782088E052
:1047800090E00C947820CF92DF92EF92FF920F93FB
:104790001F93CF93DF9380910B0410910D04813010
:1047A00021F46CE975E0112331F08091720387FDEB
:1047B00006C06DE975E087ED91E00E94310A1111A4
:1047C00098C0809172039091730382FD15C062EAD4
:1047D00075E085FFF0CF8F7590937303809372031C
:1047E000809178038A3018F48F5F8093780389E092
:1047F00090E00E9478206DC08F7790937303809330
:104800007203809168038F5F833009F46CC08093DA
:10481000680380910A048F5F80930A0480FD09C0B9
:1048200080917603C1E0882329F00E94B50E809321
:104830007603C0E08091720390917303977F909309
:104840007303809372030E9420066B017C018091A8
:10485000EA029091EB02A091EC02B091ED02B70157
:10486000A601481B590B6A0B7B0B77FF02C06C013A
:104870007D01209176038FEF90E002C0959587959A
:104880002A95E2F70E943014645973428D4F9F4F6E
:10489000C60ED71EE81EF91EC092CB02D092CC02E3
:1048A000E092CD02F092CE02CC2ED12CF12CE12C54
:1048B000C1111CC0C6E7D0E20E942006AB01BC01BA
:1048C0004C0D5D1D6E1D7F1D9E018EED92E00E94C0
:1048D0001A1081E0DF91CF911F910F91FF90EF901F
:1048E000DF90CF9008951092680393CFCFEBD3E27F
:1048F000E3CF113141F0113231F080910B0480FF90
:1049000060CF80E0E7CF80910E04837E8032A9F7EC
:10491000C12FD0E00E949207AE01415051096FE0D3
:1049200074E080E00E945A110E9492072497AE0121
:104930006EE074E08AE00E945A116B017C01C25F54
:10494000DB4F688179818A819B810E94CF2AC616BC
:10495000D706E806F90689F685E194E00E94F50598
:104960006093DA037093DB038093DC039093DD03A1
:1049700082E194E00E94F505992760936E0370939D
:104980006F03809370039093710380E00E94AD13D6
:104990001231B8F00BE114E0C3E0C8010E94FB053E
:1049A000AB01BC01411551056105710529F030E0ED
:1049B00020E08C2F0E945002CF5F0D5F1F4FC83048
:1049C00061F78091B8039091B9030197E2ECF3E0AD
:1049D00028E0DF011D922A95E9F721E02093BA0330
:1049E00026E0EFE0F4E0ABEBB3E001900D922A9506
:1049F000E1F78093C1039093C20380E1EAEBF3E017
:104A0000AAECB3E001900D928A95E1F782E08093E1
:104A1000CA030E94920740E150E06AEB73E080E035
:104A20000E945A110E94920740E150E06AEC73E044
:104A300080E00E945A1180917203909173039C014F
:104A40002472332766EF75E0232B09F4B4CE85FF7B
:104A500009C0C091780380917603C15008F05FC00F
:104A600080937603809172039091730389759D7F83
:104A7000909373038093720310920A041092E203DE
:104A80001092E3031092E4031092E5031092DE0308
:104A90001092DF031092E0031092E103109278036A
:104AA0001092EC031092EB031092E8031092E603CD
:104AB0001092F0031092F6031092EE031092EF039F
:104AC0001092F9031092740384EF8093E70388E057
:104AD00096EEA3EDB3E38093F2039093F303A093D8
:104AE000F403B093F50325E020934E04809306046D
:104AF00090930704A0930804B093090483E0809383
:104B0000FA03809119048F708093F10380911A0445
:104B1000882341F08093E90386E090E06ACE0E940A
:104B2000B50E9BCF81E0F6CF80910D0481110AC0B4
:104B30002091F10342E551E168ED78EB85E090E0EA
:104B40000C945C100E94C323882391F308958091F4
:104B50000D04811102C010920B040C94C3230F9317
:104B60001F93CF93DF938091720387FF08C08AE77A
:104B700090E0DF91CF911F910F910C94F9070E9463
:104B8000E30860919002709191028091920290915D
:104B900093020E940929162F072F20E030E048ECED
:104BA00052E460918C0270918D0280918E029091FE
:104BB0008F020E94F6290E941029EB0120E030E0CC
:104BC00048EC52E4609188027091890280918A02D7
:104BD00090918B020E94F6290E9410291092840362
:104BE000009385031093860382E0809387031092DD
:104BF0008803D0938903C0938A0383E080938B0357
:104C000010928C0370938D0360938E031092820335
:104C100081E0809381038BE0809383038091720312
:104C2000909173039C012860309373032093720367
:104C300082FF10920A040E94841988E690E099CFBE
:104C40001F920F920FB60F9211242F933F934F9301
:104C50005F936F937F938F939F93AF93BF93EF93E4
:104C6000FF938CE894E00E944003FF91EF91BF9185
:104C7000AF919F918F917F916F915F914F913F91F4
:104C80002F910F900FBE0F901F9018951F920F92AB
:104C90000FB60F9211242F938F939F93EF93FF934F
:104CA000E0919C04F0919D048081E091A204F09138
:104CB000A30482FD1BC090818091A5048F5F8F7338
:104CC0002091A604821741F0E091A504F0E0E4579A
:104CD000FB4F958F8093A504FF91EF919F918F914A
:104CE0002F910F900FBE0F901F9018958081F4CFD9
:104CF0001F920F920FB60F9211242F933F938F9311
:104D00009F93AF93BF938091780490917904A09181
:104D10007A04B0917B043091BA0226E0230F2D373C
:104D200058F50296A11DB11D2093BA028093780414
:104D300090937904A0937A04B0937B048091BB0292
:104D40009091BC02A091BD02B091BE020196A11D3E
:104D5000B11D8093BB029093BC02A093BD02B0939F
:104D6000BE02BF91AF919F918F913F912F910F9074
:104D70000FBE0F901F90189529E8230F0396A11DD1
:104D8000B11DD2CFECE8F4E01382128288EE93E0FA
:104D9000A0E0B0E084839583A683B7838AE091E0A6
:104DA0009183808385EC90E09587848784EC90E004
:104DB0009787868780EC90E0918B808B81EC90E0E8
:104DC000938B828B82EC90E0958B848B86EC90E0C9
:104DD000978B868B118E128E138E148EE9E2F5E07E
:104DE00080E5808381E08183ABE2B5E085E01596C4
:104DF0008C93159786E116968C931697E5E7F3E06A
:104E0000E4911796EC931797E1E6F3E0E491189696
:104E1000EC93189740E45FE160E070E01D964D93DD
:104E20005D936D937C9350970895789484B58260D8
:104E300084BD84B5816084BD85B5826085BD85B53E
:104E4000816085BD80916E00816080936E001092BC
:104E50008100809181008260809381008091810037
:104E600081608093810080918000816080938000C8
:104E70008091B10084608093B1008091B000816026
:104E80008093B00080917A00846080937A00809152
:104E90007A00826080937A0080917A008E7F80937E
:104EA0007A0080917A00806880937A001092C10025
:104EB000E0919C04F0919D0482E08083E09198044D
:104EC000F09199041082E0919A04F0919B0487E696
:104ED00080831092A404E091A004F091A10486E0E4
:104EE0008083E0919E04F0919F04808180618083A3
:104EF000E0919E04F0919F04808188608083E0911E
:104F00009E04F0919F04808180688083E0919E04DC
:104F1000F0919F0480818F7D808386E392E00E94E0
:104F2000EB0780E592E00E94EB0764E670E080E02A
:104F300090E00E94A20461E086E00E94410461E0EA
:104F400084E00E94410461E086E00E94130460E076
:104F500084E00E94130462E0809130050E944104C5
:104F60002FB7F8948091780490917904A0917A04F5
:104F7000B0917B042FBF805D9740A109B109809358
:104F8000340590933505A0933605B093370587E334
:104F900080933D0587E692E00E94EB070E94E308BC
:104FA0000E940E158FEB92E00E94AF2500E010E00A
:104FB0000E941906C091C902D091CA02209779F0C7
:104FC000888199819093CA028093C9020E94BE0E83
:104FD000209739F1EE81FF81CE01099522C0E09141
:104FE000C702F091C8023097D1F0C280D380E4802C
:104FF000F5800E942006C61AD70AE80AF90A1C148E
:105000001D041E041F045CF0C091C702D091C802A9
:10501000888199819093C8028093C702D7CF0E945C
:10502000BE0E0115110521F20E942C03882309F4FC
:10503000BFCF0E940000BCCFFB01DC0102C0059085
:105040000D9241505040D8F708955058BB27AA27D9
:105050000E943D280C94B7290E94A92938F00E948B
:10506000B02920F039F49F3F19F426F40C94A629B6
:105070000EF4E095E7FB0C94A029E92F0E94C829C3
:1050800058F3BA17620773078407950720F079F47D
:10509000A6F50C94EA290EF4E0950B2EBA2FA02D5C
:1050A0000B01B90190010C01CA01A0011124FF27D5
:1050B000591B99F0593F50F4503E68F11A16F040D0
:1050C000A22F232F342F4427585FF3CF46953795CF
:1050D0002795A795F0405395C9F77EF41F16BA0B94
:1050E000620B730B840BBAF09150A1F0FF0FBB1F42
:1050F000661F771F881FC2F70EC0BA0F621F731F8B
:10510000841F48F4879577956795B795F7959E3FE7
:1051100008F0B0CF9395880F08F09927EE0F979578
:10512000879508950E947C2908F481E008950E94E3
:10513000AB280C94B7290E94B02958F00E94A929E5
:1051400040F029F45F3F29F00C94A02951110C94F0
:10515000EB290C94A6290E94C82968F39923B1F37E
:10516000552391F3951B550BBB27AA27621773078D
:10517000840738F09F5F5F4F220F331F441FAA1F21
:10518000A9F335D00E2E3AF0E0E832D091505040DD
:10519000E695001CCAF72BD0FE2F29D0660F771F8B
:1051A000881FBB1F261737074807AB07B0E809F071
:1051B000BB0B802DBF01FF2793585F4F3AF09E3FF6
:1051C000510578F00C94A0290C94EB295F3FE4F38F
:1051D000983ED4F3869577956795B795F7959F5F39
:1051E000C9F7880F911D9695879597F90895E1E085
:1051F000660F771F881FBB1F621773078407BA07E4
:1052000020F0621B730B840BBA0BEE1F88F7E0953E
:1052100008950E9410296894B1110C94EB29089507
:105220000E94D02988F09F5798F0B92F9927B7513D
:10523000B0F0E1F0660F771F881F991F1AF0BA953A
:10524000C9F714C0B13091F00E94EA29B1E0089585
:105250000C94EA29672F782F8827B85F39F0B93F77
:10526000CCF3869577956795B395D9F73EF49095ED
:105270008095709561957F4F8F4F9F4F0895E8946B
:1052800009C097FB3EF490958095709561957F4F8E
:105290008F4F9F4F9923A9F0F92F96E9BB2793953C
:1052A000F695879577956795B795F111F8CFFAF44C
:1052B000BB0F11F460FF1BC06F5F7F4F8F4F9F4F7D
:1052C00016C0882311F096E911C0772321F09EE8DB
:1052D000872F762F05C0662371F096E8862F70E041
:1052E00060E02AF09A95660F771F881FDAF7880F1B
:1052F0009695879597F90895990F0008550FAA0B71
:10530000E0E8FEEF16161706E807F907C0F01216D8
:105310001306E407F50798F0621B730B840B950BDB
:1053200039F40A2661F0232B242B252B21F4089530
:105330000A2609F4A140A6958FEF811D811D0895CD
:1053400097F99F6780E870E060E008959FEF80EC38
:10535000089500240A9416161706180609060895DB
:1053600000240A9412161306140605060895092E41
:105370000394000C11F4882352F0BB0F40F4BF2BB0
:1053800011F460FF04C06F5F7F4F8F4F9F4F0895F0
:1053900057FD9058440F551F59F05F3F71F04795E6
:1053A000880F97FB991F61F09F3F79F087950895CB
:1053B000121613061406551FF2CF4695F1DF08C0EA
:1053C000161617061806991FF1CF86957105610507
:1053D00008940895E894BB2766277727CB0197F9AF
:1053E00008950E947C2908F48FEF08950E94092AED
:1053F0000C94B7290E94A92938F00E94B02920F006
:10540000952311F00C94A0290C94A62911240C9436
:10541000EB290E94C82970F3959FC1F3950F50E0C6
:10542000551F629FF001729FBB27F00DB11D639F56
:10543000AA27F00DB11DAA1F649F6627B00DA11DFC
:10544000661F829F2227B00DA11D621F739FB00DA2
:10545000A11D621F839FA00D611D221F749F332712
:10546000A00D611D231F849F600D211D822F762FAB
:105470006A2F11249F5750409AF0F1F088234AF088
:10548000EE0FFF1FBB1F661F771F881F91505040F4
:10549000A9F79E3F510580F00C94A0290C94EB29AC
:1054A0005F3FE4F3983ED4F3869577956795B7957B
:1054B000F795E7959F5FC1F7FE2B880F911D969595
:1054C000879597F908950E947C29880B990B089578
:1054D000991B79E004C0991F961708F0961B881F46
:1054E0007A95C9F78095089597FB072E16F40094D6
:1054F00007D077FD09D00E949E2C07FC05D03EF412
:10550000909581959F4F0895709561957F4F08956F
:10551000A1E21A2EAA1BBB1BFD010DC0AA1FBB1FB7
:10552000EE1FFF1FA217B307E407F50720F0A21B29
:10553000B30BE40BF50B661F771F881F991F1A9496
:1055400069F760957095809590959B01AC01BD01C0
:10555000CF010895052E97FB1EF400940E94C12AE6
:1055600057FD07D00E94882A07FC03D04EF40C9404
:10557000C12A50954095309521953F4F4F4F5F4F31
:10558000089590958095709561957F4F8F4F9F4FAF
:105590000895EE0FFF1F0590F491E02D09946927FF
:1055A000962769277827872778270895A29FB00133
:1055B000B39FC001A39F700D811D1124911DB29F47
:1055C000700D811D1124911D08950E94D62AB7FFE8
:1055D0000895821B930B08950E94D62AA59F900DD3
:1055E000B49F900DA49F800D911D11240895B7FFC5
:1055F0000C94EC2A0E94EC2A821B930B0895DF93F3
:10560000CF931F930F939A9DF02D219FF00D8B9DAB
:10561000F00D8A9DE02DF10D039FF00D029FE00D2E
:10562000F11D4E9DE00DF11D5E9DF00D4F9DF00DA5
:105630007F936F93BF92AF925F934F93D5010E9478
:10564000D62A8B01AC01D7010E94D62AEB01E80FC4
:10565000F91FD6010E944E2B2F913F91D6010E9437
:10566000D62AC60FD71FE81FF91FAF91BF910E941E
:105670004E2B2F913F910E94D62AC60FD71FE81FAD
:10568000F91FD6010E94D62AE60FF71F9801BE0126
:10569000CF010F911F91CF91DF9108950E94D62ADB
:1056A000460F571FC81FD91F08F43196089597FB5E
:1056B00057FF0C94672B9F938F930E94672B6E1B51
:1056C0007F0BAF91BF918A0B9B0B0895E894DF93FA
:1056D000CF93FC01DB010E94D62A7F936F93E901EF
:1056E0009A01AC01BF93AF933F932F93DF010E94C8
:1056F000D62A26F46C1B7D0B820B930B9E01EB01CB
:10570000FC010E944E2BAF91BF912F913F910E94BF
:105710004E2BBE01CF01F9012F913F91CF91DF9127
:105720000895689401C0E894F92FF12B12F00C94BD
:10573000C52BA0E0B0E0EFE9FBE20C94372C092E7A
:10574000059422F40E94212C112392F4F0E80F26F4
:10575000FFEFE094F09400951095B094C094D0942D
:10576000A194BF0ACF0ADF0AEF0AFF0A0F0B1F0B33
:105770000E94D02B07FC0E94212CCDB7DEB7ECE0B5
:105780000C94532C689401C0E8948F929F92CF930D
:10579000DF930E94D02BDF91CF919F908F9008953F
:1057A00088249924F401E401B0E49F93AA279A1570
:1057B0008B049C04ED05FE05CF05D007A10798F4E6
:1057C000AD2FDC2FCF2FFE2FE92D982C892E982F6F
:1057D000872F762F652F542F432F322F2227B85033
:1057E00031F7BF9127C01B2EBF91BB27220F331F5C
:1057F000441F551F661F771F881F991F881C991CFF
:10580000EE1FFF1FCC1FDD1FAA1FBB1F8A149B04A6
:10581000EC05FD05CE05DF05A007B10748F08A18A5
:105820009B08EC09FD09CE09DF09A00BB10B216033
:105830001A94E1F62EF49401AF01BE01CD01000CE3
:105840000895609570958095909530954095509508
:1058500021953F4F4F4F5F4F6F4F7F4F8F4F9F4F60
:1058600008952F923F924F925F926F927F928F9204
:105870009F92AF92BF92CF92DF92EF92FF920F93DF
:105880001F93CF93DF93CDB7DEB7CA1BDB0B0FB6E9
:10589000F894DEBF0FBECDBF09942A8839884888A6
:1058A0005F846E847D848C849B84AA84B984C8843C
:1058B000DF80EE80FD800C811B81AA81B981CE0F33
:1058C000D11D0FB6F894DEBF0FBECDBFED01089518
:1058D000002E083090F0982F872F762F652F542FA9
:1058E000432F322F22270850F4CF220F331F441F9B
:1058F000551F661F771F881F991F0A95B2F7002D45
:10590000089597FD1094002E083098F00850232F2A
:10591000342F452F562F672F782F892F912DF4CFB5
:1059200015949795879577956795579547953795EA
:1059300027950A95AAF71124002D0895AA1BBB1BD1
:1059400051E107C0AA1FBB1FA617B70710F0A61B7F
:10595000B70B881F991F5A95A9F780959095BC01A0
:10596000CD010895FB01DC0102C001900D92415070
:105970005040D8F70895F894FFCF0AFFFF020708B8
:10598000000000006203C202EF02CA032003FE020D
:1059900012030D0A006E616E00696E66006F766616
:1059A000000A5F5F5F5570646174696E672076619D
:1059B0006C75652E202E202E00566363203D20003E
:1059C00020560054656D70657261747572653A2079
:1059D000002043656C736975730048756D6964696F
:1059E00074793A20002025004641494C5552452003
:1059F00000443A5C4F6E654472697665202D204400
:105A0000616E616E6720556E69766572736974792F
:105A1000206F6620546563686E6F6C6F67795C44B5
:105A20006F63756D656E74735C41726475696E6FDA
:105A30005C6C69627261726965735C4C4D69435C50
:105A40007372635C6C6D69635C726164696F2E6311
:105A500000443A5C4F6E654472697665202D20449F
:105A6000616E616E6720556E6976657273697479CF
:105A7000206F6620546563686E6F6C6F67795C4455
:105A80006F63756D656E74735C41726475696E6F7A
:105A90005C6C69627261726965735C4C4D69435CF0
:105AA0007372635C6C6D69635C6C6D69632E63001B
:105AB0000A2A2D5F5F5F5F5F5F5F5F5F5F5F5F5FB2
:105AC0005F5F5F5F5F5F5F2D2A0020202E3A3A4CB8
:105AD0006F5261202852652973746172743A3A2EAC
